{
  "contractName": "gasLessPool",
  "abi": [
    {
      "inputs": [],
      "stateMutability": "nonpayable",
      "type": "constructor"
    },
    {
      "inputs": [],
      "name": "owner",
      "outputs": [
        {
          "internalType": "address",
          "name": "",
          "type": "address"
        }
      ],
      "stateMutability": "view",
      "type": "function"
    },
    {
      "inputs": [
        {
          "internalType": "address",
          "name": "_to",
          "type": "address"
        },
        {
          "internalType": "uint256",
          "name": "_amount",
          "type": "uint256"
        },
        {
          "internalType": "uint256",
          "name": "_nonce",
          "type": "uint256"
        },
        {
          "internalType": "bytes",
          "name": "signature",
          "type": "bytes"
        }
      ],
      "name": "withdraw",
      "outputs": [
        {
          "internalType": "address",
          "name": "",
          "type": "address"
        }
      ],
      "stateMutability": "view",
      "type": "function"
    },
    {
      "inputs": [
        {
          "internalType": "address",
          "name": "add",
          "type": "address"
        },
        {
          "internalType": "uint256",
          "name": "amount",
          "type": "uint256"
        }
      ],
      "name": "_withdraw",
      "outputs": [],
      "stateMutability": "nonpayable",
      "type": "function"
    },
    {
      "inputs": [
        {
          "internalType": "address",
          "name": "_to",
          "type": "address"
        },
        {
          "internalType": "uint256",
          "name": "_amount",
          "type": "uint256"
        },
        {
          "internalType": "uint256",
          "name": "_nonce",
          "type": "uint256"
        }
      ],
      "name": "getMessageHash",
      "outputs": [
        {
          "internalType": "bytes32",
          "name": "",
          "type": "bytes32"
        }
      ],
      "stateMutability": "pure",
      "type": "function"
    },
    {
      "inputs": [
        {
          "internalType": "bytes32",
          "name": "_messageHash",
          "type": "bytes32"
        }
      ],
      "name": "getEthSignedMessageHash",
      "outputs": [
        {
          "internalType": "bytes32",
          "name": "",
          "type": "bytes32"
        }
      ],
      "stateMutability": "pure",
      "type": "function"
    },
    {
      "inputs": [
        {
          "internalType": "bytes32",
          "name": "_ethSignedMessageHash",
          "type": "bytes32"
        },
        {
          "internalType": "bytes",
          "name": "_signature",
          "type": "bytes"
        }
      ],
      "name": "recoverSigner",
      "outputs": [
        {
          "internalType": "address",
          "name": "",
          "type": "address"
        }
      ],
      "stateMutability": "pure",
      "type": "function"
    },
    {
      "inputs": [
        {
          "internalType": "bytes",
          "name": "sig",
          "type": "bytes"
        }
      ],
      "name": "splitSignature",
      "outputs": [
        {
          "internalType": "uint8",
          "name": "v",
          "type": "uint8"
        },
        {
          "internalType": "bytes32",
          "name": "r",
          "type": "bytes32"
        },
        {
          "internalType": "bytes32",
          "name": "s",
          "type": "bytes32"
        }
      ],
      "stateMutability": "pure",
      "type": "function"
    }
  ],
  "bytecode": "0x608060405234801561001057600080fd5b5033600160006101000a81548173ffffffffffffffffffffffffffffffffffffffff021916908373ffffffffffffffffffffffffffffffffffffffff160217905550610ca0806100616000396000f3fe608060405234801561001057600080fd5b506004361061007d5760003560e01c8063a7bb58031161005b578063a7bb580314610100578063b790a77b14610132578063d2b0737b1461014e578063fa5408011461017e5761007d565b80630bd0ca9a146100825780638da5cb5b146100b257806397aba7f9146100d0575b600080fd5b61009c600480360381019061009791906106d0565b6101ae565b6040516100a99190610762565b60405180910390f35b6100ba610242565b6040516100c79190610762565b60405180910390f35b6100ea60048036038101906100e591906107b3565b610268565b6040516100f79190610762565b60405180910390f35b61011a6004803603810190610115919061080f565b6102d7565b60405161012993929190610883565b60405180910390f35b61014c600480360381019061014791906108ba565b61033f565b005b610168600480360381019061016391906108fa565b61047c565b604051610175919061094d565b60405180910390f35b61019860048036038101906101939190610968565b6104b2565b6040516101a5919061094d565b60405180910390f35b6000600160009054906101000a900473ffffffffffffffffffffffffffffffffffffffff1673ffffffffffffffffffffffffffffffffffffffff163373ffffffffffffffffffffffffffffffffffffffff161461020a57600080fd5b600061021786868661047c565b90506000610224826104b2565b905060006102328286610268565b9050809350505050949350505050565b600160009054906101000a900473ffffffffffffffffffffffffffffffffffffffff1681565b600080600080610277856102d7565b925092509250600186848484604051600081526020016040526040516102a09493929190610995565b6020604051602081039080840390855afa1580156102c2573d6000803e3d6000fd5b50505060206040510351935050505092915050565b60008060006041845114610320576040517f08c379a000000000000000000000000000000000000000000000000000000000815260040161031790610a37565b60405180910390fd5b6020840151915060408401519050606084015160001a92509193909250565b600160009054906101000a900473ffffffffffffffffffffffffffffffffffffffff1673ffffffffffffffffffffffffffffffffffffffff163373ffffffffffffffffffffffffffffffffffffffff161461039957600080fd5b600081116103dc576040517f08c379a00000000000000000000000000000000000000000000000000000000081526004016103d390610aa3565b60405180910390fd5b806000808473ffffffffffffffffffffffffffffffffffffffff1673ffffffffffffffffffffffffffffffffffffffff168152602001908152602001600020600082825461042a9190610af2565b925050819055508173ffffffffffffffffffffffffffffffffffffffff166108fc829081150290604051600060405180830381858888f19350505050158015610477573d6000803e3d6000fd5b505050565b600083838360405160200161049393929190610b8f565b6040516020818303038152906040528051906020012090509392505050565b6000816040516020016104c59190610c44565b604051602081830303815290604052805190602001209050919050565b6000604051905090565b600080fd5b600080fd5b600073ffffffffffffffffffffffffffffffffffffffff82169050919050565b6000610521826104f6565b9050919050565b61053181610516565b811461053c57600080fd5b50565b60008135905061054e81610528565b92915050565b6000819050919050565b61056781610554565b811461057257600080fd5b50565b6000813590506105848161055e565b92915050565b600080fd5b600080fd5b6000601f19601f8301169050919050565b7f4e487b7100000000000000000000000000000000000000000000000000000000600052604160045260246000fd5b6105dd82610594565b810181811067ffffffffffffffff821117156105fc576105fb6105a5565b5b80604052505050565b600061060f6104e2565b905061061b82826105d4565b919050565b600067ffffffffffffffff82111561063b5761063a6105a5565b5b61064482610594565b9050602081019050919050565b82818337600083830152505050565b600061067361066e84610620565b610605565b90508281526020810184848401111561068f5761068e61058f565b5b61069a848285610651565b509392505050565b600082601f8301126106b7576106b661058a565b5b81356106c7848260208601610660565b91505092915050565b600080600080608085870312156106ea576106e96104ec565b5b60006106f88782880161053f565b945050602061070987828801610575565b935050604061071a87828801610575565b925050606085013567ffffffffffffffff81111561073b5761073a6104f1565b5b610747878288016106a2565b91505092959194509250565b61075c81610516565b82525050565b60006020820190506107776000830184610753565b92915050565b6000819050919050565b6107908161077d565b811461079b57600080fd5b50565b6000813590506107ad81610787565b92915050565b600080604083850312156107ca576107c96104ec565b5b60006107d88582860161079e565b925050602083013567ffffffffffffffff8111156107f9576107f86104f1565b5b610805858286016106a2565b9150509250929050565b600060208284031215610825576108246104ec565b5b600082013567ffffffffffffffff811115610843576108426104f1565b5b61084f848285016106a2565b91505092915050565b600060ff82169050919050565b61086e81610858565b82525050565b61087d8161077d565b82525050565b60006060820190506108986000830186610865565b6108a56020830185610874565b6108b26040830184610874565b949350505050565b600080604083850312156108d1576108d06104ec565b5b60006108df8582860161053f565b92505060206108f085828601610575565b9150509250929050565b600080600060608486031215610913576109126104ec565b5b60006109218682870161053f565b935050602061093286828701610575565b925050604061094386828701610575565b9150509250925092565b60006020820190506109626000830184610874565b92915050565b60006020828403121561097e5761097d6104ec565b5b600061098c8482850161079e565b91505092915050565b60006080820190506109aa6000830187610874565b6109b76020830186610865565b6109c46040830185610874565b6109d16060830184610874565b95945050505050565b600082825260208201905092915050565b7f696e76616c6964207369676e6174757265206c656e6774680000000000000000600082015250565b6000610a216018836109da565b9150610a2c826109eb565b602082019050919050565b60006020820190508181036000830152610a5081610a14565b9050919050565b7f696e76616c69646520616d6f756e740000000000000000000000000000000000600082015250565b6000610a8d600f836109da565b9150610a9882610a57565b602082019050919050565b60006020820190508181036000830152610abc81610a80565b9050919050565b7f4e487b7100000000000000000000000000000000000000000000000000000000600052601160045260246000fd5b6000610afd82610554565b9150610b0883610554565b9250828203905081811115610b2057610b1f610ac3565b5b92915050565b60008160601b9050919050565b6000610b3e82610b26565b9050919050565b6000610b5082610b33565b9050919050565b610b68610b6382610516565b610b45565b82525050565b6000819050919050565b610b89610b8482610554565b610b6e565b82525050565b6000610b9b8286610b57565b601482019150610bab8285610b78565b602082019150610bbb8284610b78565b602082019150819050949350505050565b600081905092915050565b7f19457468657265756d205369676e6564204d6573736167653a0a333200000000600082015250565b6000610c0d601c83610bcc565b9150610c1882610bd7565b601c82019050919050565b6000819050919050565b610c3e610c398261077d565b610c23565b82525050565b6000610c4f82610c00565b9150610c5b8284610c2d565b6020820191508190509291505056fea2646970667358221220c0fe0304dfd8749918ecb9f1cd70ec2a9a6d39f3dadc6a74ff8d321496fbd91764736f6c63430008100033",
  "immutableReferences": {},
  "source": "// SPDX-License-Identifier: MIT\npragma solidity ^0.8.10;\n\n\ncontract gasLessPool {\n\n    mapping (address => uint256) balances;\n    address public owner;\n    \n\n    constructor(){\n        owner = msg.sender;\n    }\n\n    modifier onlyOwner() {\n        require(msg.sender == owner);\n        _;\n    }\n     \n    function withdraw(\n        address _to,\n        uint _amount,\n        uint _nonce,\n        bytes memory signature\n    ) public view onlyOwner returns(address){\n        bytes32 messageHash = getMessageHash(_to, _amount, _nonce);\n        bytes32 ethSignedMessageHash = getEthSignedMessageHash(messageHash);\n\n        address signer = recoverSigner(ethSignedMessageHash, signature) ;\n\n        return(signer);\n        \n    }\n\n\n    function _deposit (address add,uint256 amount) internal {\n        require(amount >0, \"invalide amount\");\n        balances[add] += amount;\n    }  \n\n    \n    function _withdraw (address add,uint256 amount) public onlyOwner {\n        require(amount >0, \"invalide amount\");\n        balances[add] -= amount;\n        payable(add).transfer(amount);\n    }  \n    \n\n    // for withdraw\n    function getMessageHash(\n        address _to,\n        uint _amount,\n        uint _nonce\n    ) public pure returns (bytes32) {\n        return keccak256(abi.encodePacked(_to, _amount,  _nonce));\n    }\n\n    function getEthSignedMessageHash(bytes32 _messageHash)\n        public\n        pure\n        returns (bytes32)\n    {\n        return\n            keccak256(\n                abi.encodePacked(\"\\x19Ethereum Signed Message:\\n32\", _messageHash)\n            );\n    }   \n\n \n  \n\n    function recoverSigner(bytes32 _ethSignedMessageHash, bytes memory _signature)\n        public\n        pure\n        returns (address)\n    {\n        (uint8 v, bytes32 r, bytes32 s) = splitSignature(_signature);\n\n        return ecrecover(_ethSignedMessageHash, v, r, s);\n    }\n\n    function splitSignature(bytes memory sig)\n        public\n        pure\n        returns (\n            uint8 v ,\n            bytes32 r,\n            bytes32 s\n        )\n    {\n        require(sig.length == 65, \"invalid signature length\");\n\n        assembly {\n  \n\n            // first 32 bytes, after the length prefix\n            r := mload(add(sig, 32))\n            // second 32 bytes\n            s := mload(add(sig, 64))\n            // final byte (first byte of the next 32 bytes)\n            v := byte(0, mload(add(sig, 96)))\n        }\n            return(v,r,s);\n    }\n}\n",
  "sourcePath": "C:\\Users\\91741\\OneDrive\\Documents\\Work\\Nest JS\\meta transaction\\blockchain\\contracts\\metatrans.sol",
  "compiler": {
    "name": "solc",
    "version": "0.8.16+commit.07a7930e.Emscripten.clang"
  },
  "schemaVersion": "3.4.4",
  "updatedAt": "2022-08-31T16:00:56.796Z",
  "devdoc": {
    "kind": "dev",
    "methods": {},
    "version": 1
  },
  "userdoc": {
    "kind": "user",
    "methods": {},
    "version": 1
  }
}